:100000000C942A000C9447000C9447000C94470071
:100010000C9447000C9447000C9447000C94470044
:100020000C9447000C9447000C9447000C94470034
:100030000C9447000C9447000C9447000C94470024
:100040000C9447000C9447000C9447000C94470014
:100050000C94470011241FBECFE5D4E0DEBFCDBF16
:1000600010E0A0E6B0E0EEE7F2E002C005900D92ED
:10007000A037B107D9F710E0A0E7B0E001C01D92AA
:10008000A037B107E1F70E94D5000C943D010C9414
:100090000000282F207F28BBC298C39A20ED37E0AC
:1000A000F9013197F1F7C398F9013197F1F790E031
:1000B00044E0880F991F4A95E1F788BBC298C39A1C
:1000C000C9010197F1F7C398C9010197F1F70895A4
:1000D00082E090E00E94490088E290E00E9449009E
:1000E00086E090E00E9449008CE090E00E94490088
:1000F0000895282F207F28BBC29AC39A20ED37E0AD
:10010000F9013197F1F7C398F9013197F1F790E0D0
:1001100054E0880F991F5A95E1F788BBC29AC39A99
:10012000C9010197F1F7C398C9010197F1F7089543
:1001300081E00E94490080ED97E00197F1F7089572
:100140001F93CF93DF93EC0110E003C00E9479006E
:100150001F5FFE01E10FF11D80818823B9F7DF9158
:10016000CF911F910895CF93DF93EC0184E00E941B
:100170004900209791F480E30E9479000EC0CE01DF
:100180006AE070E00E942901805D0E947900CE0142
:100190006AE070E00E942901EB01209781F786E078
:1001A0000E944900DF91CF910895AF92BF92CF9204
:1001B000DF92FF920F931F93CF93DF938FEF87BB55
:1001C0000E94680081E80E94490080E690E00E9459
:1001D000A000FF247EE6C72E70E0D72E60E2A62E98
:1001E0006EE4B62E33C084EC0E9449008F2D90E05F
:1001F0000E94B30085EC0E9449008C2D0E9479007A
:1002000087EC0E944900C8010E94B30088EC0E945C
:1002100049008C2D0E9479008AEC0E944900CE0191
:100220000E94B300C5010197F1F72196CC33D105A7
:10023000D1F60F5F1F4F0C33110519F0C0E0D0E06D
:10024000D2CFF39488E18F1508F4FF2400E010E08A
:10025000F5CFAA1BBB1B51E107C0AA1FBB1FA617E6
:10026000B70710F0A61BB70B881F991F5A95A9F75F
:0E02700080959095BC01CD010895F894FFCFC4
:10027E006469676974616C20636C6F636B003A002C
:00000001FF
